{
  "transactions": [
    {
      "hash": "0x42cd152a4ea612d5e0da8d1304a691e24c5679495f102cafad5ab7b79d96cad1",
      "transactionType": "CALL",
      "contractName": null,
      "contractAddress": "0xafea79095d624e72423fedb7547ba181fdfd0feb",
      "function": "applyChainUpdates((uint64,bool,bytes,bytes,(bool,uint128,uint128),(bool,uint128,uint128))[])",
      "arguments": [
        "[(16015286601757825753, true, 0x536763d0384b47ea698da26736aec29e4e659674, 0xdf319c71b8835686eb3f37bc4feccd231855b3c0, (false, 0, 0), (false, 0, 0))]"
      ],
      "transaction": {
        "from": "0x7f6a4429ac431a7f0c5fb7d6fa63f973907d82e9",
        "to": "0xafea79095d624e72423fedb7547ba181fdfd0feb",
        "gas": "0xe7a35",
        "value": "0x0",
        "input": "0xdb6327dc000000000000000000000000000000000000000000000000000000000000002000000000000000000000000000000000000000000000000000000000000000010000000000000000000000000000000000000000000000000000000000000020000000000000000000000000000000000000000000000000de41ba4fc9d91ad90000000000000000000000000000000000000000000000000000000000000001000000000000000000000000000000000000000000000000000000000000014000000000000000000000000000000000000000000000000000000000000001800000000000000000000000000000000000000000000000000000000000000000000000000000000000000000000000000000000000000000000000000000000000000000000000000000000000000000000000000000000000000000000000000000000000000000000000000000000000000000000000000000000000000000000000000000000000000000000000000000000000000000000000000000000000000000000000000000000000000000000000000000000000000000000000000000000000000000000000000000000000000000000000000000000000000014536763d0384b47ea698da26736aec29e4e6596740000000000000000000000000000000000000000000000000000000000000000000000000000000000000014df319c71b8835686eb3f37bc4feccd231855b3c0000000000000000000000000",
        "nonce": "0x3e",
        "chainId": "0x12c"
      },
      "additionalContracts": [],
      "isFixedGasLimit": false
    }
  ],
  "receipts": [
    {
      "status": "0x1",
      "cumulativeGasUsed": "0x0",
      "logs": [
        {
          "address": "0x000000000000000000000000000000000000800a",
          "topics": [
            "0xddf252ad1be2c89b69c2b068fc378daa952ba7f163c4a11628f55a4df523b3ef",
            "0x0000000000000000000000007f6a4429ac431a7f0c5fb7d6fa63f973907d82e9",
            "0x0000000000000000000000000000000000000000000000000000000000008001"
          ],
          "data": "0x00000000000000000000000000000000000000000000000000002b255b9f44b5",
          "blockHash": "0x12cb06aa4afe6b8ef2678ab9c11132a903ea1a195c412256e9ea61079f65569c",
          "blockNumber": "0x73fef4",
          "blockTimestamp": "0x6a265df4",
          "transactionHash": "0x42cd152a4ea612d5e0da8d1304a691e24c5679495f102cafad5ab7b79d96cad1",
          "transactionIndex": "0x0",
          "logIndex": "0x0",
          "removed": false
        },
        {
          "address": "0x000000000000000000000000000000000000800a",
          "topics": [
            "0xddf252ad1be2c89b69c2b068fc378daa952ba7f163c4a11628f55a4df523b3ef",
            "0x0000000000000000000000000000000000000000000000000000000000008001",
            "0x0000000000000000000000007f6a4429ac431a7f0c5fb7d6fa63f973907d82e9"
          ],
          "data": "0x00000000000000000000000000000000000000000000000000001592add6df75",
          "blockHash": "0x12cb06aa4afe6b8ef2678ab9c11132a903ea1a195c412256e9ea61079f65569c",
          "blockNumber": "0x73fef4",
          "blockTimestamp": "0x6a265df4",
          "transactionHash": "0x42cd152a4ea612d5e0da8d1304a691e24c5679495f102cafad5ab7b79d96cad1",
          "transactionIndex": "0x0",
          "logIndex": "0x1",
          "removed": false
        },
        {
          "address": "0xafea79095d624e72423fedb7547ba181fdfd0feb",
          "topics": [
            "0x8d340f17e19058004c20453540862a9c62778504476f6756755cb33bcd6c38c2"
          ],
          "data": "0x000000000000000000000000000000000000000000000000de41ba4fc9d91ad900000000000000000000000000000000000000000000000000000000000001000000000000000000000000000000000000000000000000000000000000000000000000000000000000000000000000000000000000000000000000000000000000000000000000000000000000000000000000000000000000000000000000000000000000000000000000000000000000000000000000000000000000000000000000000000000000000000000000000000000000000000000000000000000000000000000000000000000000000000000000000000000000000000000000000000000000000000000000000000000000000000000000000000000000000014df319c71b8835686eb3f37bc4feccd231855b3c0000000000000000000000000",
          "blockHash": "0x12cb06aa4afe6b8ef2678ab9c11132a903ea1a195c412256e9ea61079f65569c",
          "blockNumber": "0x73fef4",
          "blockTimestamp": "0x6a265df4",
          "transactionHash": "0x42cd152a4ea612d5e0da8d1304a691e24c5679495f102cafad5ab7b79d96cad1",
          "transactionIndex": "0x0",
          "logIndex": "0x2",
          "removed": false
        },
        {
          "address": "0x000000000000000000000000000000000000800a",
          "topics": [
            "0xddf252ad1be2c89b69c2b068fc378daa952ba7f163c4a11628f55a4df523b3ef",
            "0x0000000000000000000000000000000000000000000000000000000000008001",
            "0x0000000000000000000000007f6a4429ac431a7f0c5fb7d6fa63f973907d82e9"
          ],
          "data": "0x00000000000000000000000000000000000000000000000000000e30ab96b600",
          "blockHash": "0x12cb06aa4afe6b8ef2678ab9c11132a903ea1a195c412256e9ea61079f65569c",
          "blockNumber": "0x73fef4",
          "blockTimestamp": "0x6a265df4",
          "transactionHash": "0x42cd152a4ea612d5e0da8d1304a691e24c5679495f102cafad5ab7b79d96cad1",
          "transactionIndex": "0x0",
          "logIndex": "0x3",
          "removed": false
        }
      ],
      "logsBloom": "0x00000000000400400000000000000000000000000000000000002000000000000000000000000000000000000000000000000000000000000004080000000000000000000000040000000008000000000000000000000000000100000000080000000000000000000000000000000000000000000000000000000010000000000000200000000000000004000000000000000000000000000000000000000000000000000000100000000000000000000000000000000000000000000000000000000002008000000000000000000000000000000000000000000000000020010000000000000000000000000000000000000000000000000100000000000000",
      "type": "0x2",
      "transactionHash": "0x42cd152a4ea612d5e0da8d1304a691e24c5679495f102cafad5ab7b79d96cad1",
      "transactionIndex": "0x0",
      "blockHash": "0x12cb06aa4afe6b8ef2678ab9c11132a903ea1a195c412256e9ea61079f65569c",
      "blockNumber": "0x73fef4",
      "gasUsed": "0x4f45d",
      "effectiveGasPrice": "0x17d7840",
      "from": "0x7f6a4429ac431a7f0c5fb7d6fa63f973907d82e9",
      "to": "0xafea79095d624e72423fedb7547ba181fdfd0feb",
      "contractAddress": null,
      "l1BatchNumber": null,
      "l1BatchTxIndex": null,
      "l2ToL1Logs": []
    }
  ],
  "libraries": [],
  "pending": [],
  "returns": {},
  "timestamp": 1780899317961,
  "chain": 300,
  "commit": null
}