{
  "transactions": [
    {
      "hash": "0x38246a60755063e57aee7a1a66a8ca36b7bbf844e989c9611a8df55b40ed4a9a",
      "transactionType": "CALL",
      "contractName": null,
      "contractAddress": "0x48e6dbbcf49a611a814247ac8b710c845a17c126",
      "function": "applyChainUpdates((uint64,bool,bytes,bytes,(bool,uint128,uint128),(bool,uint128,uint128))[])",
      "arguments": [
        "[(16015286601757825753, true, 0x107e55897c47e76a2378cd5dbe2c60e8c2677d49, 0xc7c6abc8c4e58d7af0f7074ef1ad809aad614c54, (false, 0, 0), (false, 0, 0))]"
      ],
      "transaction": {
        "from": "0x7f6a4429ac431a7f0c5fb7d6fa63f973907d82e9",
        "to": "0x48e6dbbcf49a611a814247ac8b710c845a17c126",
        "gas": "0xe7a35",
        "value": "0x0",
        "input": "0xdb6327dc000000000000000000000000000000000000000000000000000000000000002000000000000000000000000000000000000000000000000000000000000000010000000000000000000000000000000000000000000000000000000000000020000000000000000000000000000000000000000000000000de41ba4fc9d91ad90000000000000000000000000000000000000000000000000000000000000001000000000000000000000000000000000000000000000000000000000000014000000000000000000000000000000000000000000000000000000000000001800000000000000000000000000000000000000000000000000000000000000000000000000000000000000000000000000000000000000000000000000000000000000000000000000000000000000000000000000000000000000000000000000000000000000000000000000000000000000000000000000000000000000000000000000000000000000000000000000000000000000000000000000000000000000000000000000000000000000000000000000000000000000000000000000000000000000000000000000000000000000000000000000000000000000014107e55897c47e76a2378cd5dbe2c60e8c2677d490000000000000000000000000000000000000000000000000000000000000000000000000000000000000014c7c6abc8c4e58d7af0f7074ef1ad809aad614c54000000000000000000000000",
        "nonce": "0x51",
        "chainId": "0x12c"
      },
      "additionalContracts": [],
      "isFixedGasLimit": false
    }
  ],
  "receipts": [
    {
      "status": "0x1",
      "cumulativeGasUsed": "0x0",
      "logs": [
        {
          "address": "0x000000000000000000000000000000000000800a",
          "topics": [
            "0xddf252ad1be2c89b69c2b068fc378daa952ba7f163c4a11628f55a4df523b3ef",
            "0x0000000000000000000000007f6a4429ac431a7f0c5fb7d6fa63f973907d82e9",
            "0x0000000000000000000000000000000000000000000000000000000000008001"
          ],
          "data": "0x00000000000000000000000000000000000000000000000000002b255b9f44b5",
          "blockHash": "0xe5607754eba035e8d12d4abb7a24d35837db139d7058091f5b4431c7a54e6889",
          "blockNumber": "0x73ffb3",
          "blockTimestamp": "0x6a2665e1",
          "transactionHash": "0x38246a60755063e57aee7a1a66a8ca36b7bbf844e989c9611a8df55b40ed4a9a",
          "transactionIndex": "0x0",
          "logIndex": "0x0",
          "removed": false
        },
        {
          "address": "0x000000000000000000000000000000000000800a",
          "topics": [
            "0xddf252ad1be2c89b69c2b068fc378daa952ba7f163c4a11628f55a4df523b3ef",
            "0x0000000000000000000000000000000000000000000000000000000000008001",
            "0x0000000000000000000000007f6a4429ac431a7f0c5fb7d6fa63f973907d82e9"
          ],
          "data": "0x00000000000000000000000000000000000000000000000000001592add6df75",
          "blockHash": "0xe5607754eba035e8d12d4abb7a24d35837db139d7058091f5b4431c7a54e6889",
          "blockNumber": "0x73ffb3",
          "blockTimestamp": "0x6a2665e1",
          "transactionHash": "0x38246a60755063e57aee7a1a66a8ca36b7bbf844e989c9611a8df55b40ed4a9a",
          "transactionIndex": "0x0",
          "logIndex": "0x1",
          "removed": false
        },
        {
          "address": "0x48e6dbbcf49a611a814247ac8b710c845a17c126",
          "topics": [
            "0x8d340f17e19058004c20453540862a9c62778504476f6756755cb33bcd6c38c2"
          ],
          "data": "0x000000000000000000000000000000000000000000000000de41ba4fc9d91ad900000000000000000000000000000000000000000000000000000000000001000000000000000000000000000000000000000000000000000000000000000000000000000000000000000000000000000000000000000000000000000000000000000000000000000000000000000000000000000000000000000000000000000000000000000000000000000000000000000000000000000000000000000000000000000000000000000000000000000000000000000000000000000000000000000000000000000000000000000000000000000000000000000000000000000000000000000000000000000000000000000000000000000000000000000014c7c6abc8c4e58d7af0f7074ef1ad809aad614c54000000000000000000000000",
          "blockHash": "0xe5607754eba035e8d12d4abb7a24d35837db139d7058091f5b4431c7a54e6889",
          "blockNumber": "0x73ffb3",
          "blockTimestamp": "0x6a2665e1",
          "transactionHash": "0x38246a60755063e57aee7a1a66a8ca36b7bbf844e989c9611a8df55b40ed4a9a",
          "transactionIndex": "0x0",
          "logIndex": "0x2",
          "removed": false
        },
        {
          "address": "0x000000000000000000000000000000000000800a",
          "topics": [
            "0xddf252ad1be2c89b69c2b068fc378daa952ba7f163c4a11628f55a4df523b3ef",
            "0x0000000000000000000000000000000000000000000000000000000000008001",
            "0x0000000000000000000000007f6a4429ac431a7f0c5fb7d6fa63f973907d82e9"
          ],
          "data": "0x00000000000000000000000000000000000000000000000000000e30ab96b600",
          "blockHash": "0xe5607754eba035e8d12d4abb7a24d35837db139d7058091f5b4431c7a54e6889",
          "blockNumber": "0x73ffb3",
          "blockTimestamp": "0x6a2665e1",
          "transactionHash": "0x38246a60755063e57aee7a1a66a8ca36b7bbf844e989c9611a8df55b40ed4a9a",
          "transactionIndex": "0x0",
          "logIndex": "0x3",
          "removed": false
        }
      ],
      "logsBloom": "0x00000000000400400000000000000000000000000000000000002000000000000000000000000000000000000000000000000000000000000004080000000000000000000000040000000008000000000000000000000000000000000000080000000000000000000000000000000000000000000000000000200010000000000000000000000000000004000000000000000000000000000000000000000000000000000000100000000000000000000000000000000000000000000000000000000002008000000000020000000000000000002000000000000000000000010000000000000000000000000000000000000000000000000100000000000000",
      "type": "0x2",
      "transactionHash": "0x38246a60755063e57aee7a1a66a8ca36b7bbf844e989c9611a8df55b40ed4a9a",
      "transactionIndex": "0x0",
      "blockHash": "0xe5607754eba035e8d12d4abb7a24d35837db139d7058091f5b4431c7a54e6889",
      "blockNumber": "0x73ffb3",
      "gasUsed": "0x4f45d",
      "effectiveGasPrice": "0x17d7840",
      "from": "0x7f6a4429ac431a7f0c5fb7d6fa63f973907d82e9",
      "to": "0x48e6dbbcf49a611a814247ac8b710c845a17c126",
      "contractAddress": null,
      "l1BatchNumber": null,
      "l1BatchTxIndex": null,
      "l2ToL1Logs": []
    }
  ],
  "libraries": [],
  "pending": [],
  "returns": {},
  "timestamp": 1780901347364,
  "chain": 300,
  "commit": null
}