{
  "transactions": [
    {
      "hash": "0xafc80da086c5968fbb5927131a65ad4ded99cc67e79ef535457485e1db19e25e",
      "transactionType": "CALL",
      "contractName": null,
      "contractAddress": "0x2962dd47f63747fb0139346b179974a485c4ec7d",
      "function": "applyChainUpdates((uint64,bool,bytes,bytes,(bool,uint128,uint128),(bool,uint128,uint128))[])",
      "arguments": [
        "[(6898391096552792247, true, 0x6dea655b22edbe73b1724dcd94e41a4e19263195, 0x1779b64b852f86b6e834c25c589fcc6fc8dff64d, (false, 0, 0), (false, 0, 0))]"
      ],
      "transaction": {
        "from": "0x7f6a4429ac431a7f0c5fb7d6fa63f973907d82e9",
        "to": "0x2962dd47f63747fb0139346b179974a485c4ec7d",
        "gas": "0x41eb2",
        "value": "0x0",
        "input": "0xdb6327dc0000000000000000000000000000000000000000000000000000000000000020000000000000000000000000000000000000000000000000000000000000000100000000000000000000000000000000000000000000000000000000000000200000000000000000000000000000000000000000000000005fbc02272fbf20b700000000000000000000000000000000000000000000000000000000000000010000000000000000000000000000000000000000000000000000000000000140000000000000000000000000000000000000000000000000000000000000018000000000000000000000000000000000000000000000000000000000000000000000000000000000000000000000000000000000000000000000000000000000000000000000000000000000000000000000000000000000000000000000000000000000000000000000000000000000000000000000000000000000000000000000000000000000000000000000000000000000000000000000000000000000000000000000000000000000000000000000000000000000000000000000000000000000000000000000000000000000000000000000000000000000000000146dea655b22edbe73b1724dcd94e41a4e1926319500000000000000000000000000000000000000000000000000000000000000000000000000000000000000141779b64b852f86b6e834c25c589fcc6fc8dff64d000000000000000000000000",
        "nonce": "0x1c7",
        "chainId": "0xaa36a7"
      },
      "additionalContracts": [],
      "isFixedGasLimit": false
    }
  ],
  "receipts": [
    {
      "status": "0x1",
      "cumulativeGasUsed": "0x13eb6d2",
      "logs": [
        {
          "address": "0x2962dd47f63747fb0139346b179974a485c4ec7d",
          "topics": [
            "0x8d340f17e19058004c20453540862a9c62778504476f6756755cb33bcd6c38c2"
          ],
          "data": "0x0000000000000000000000000000000000000000000000005fbc02272fbf20b7000000000000000000000000000000000000000000000000000000000000010000000000000000000000000000000000000000000000000000000000000000000000000000000000000000000000000000000000000000000000000000000000000000000000000000000000000000000000000000000000000000000000000000000000000000000000000000000000000000000000000000000000000000000000000000000000000000000000000000000000000000000000000000000000000000000000000000000000000000000000000000000000000000000000000000000000000000000000000000000000000000000000000000000000000000141779b64b852f86b6e834c25c589fcc6fc8dff64d000000000000000000000000",
          "blockHash": "0xb863562393d6081f94e2b379bb20e224eee29516e500a8eb45935a8b225201f1",
          "blockNumber": "0xa7fa89",
          "blockTimestamp": "0x6a25661c",
          "transactionHash": "0xafc80da086c5968fbb5927131a65ad4ded99cc67e79ef535457485e1db19e25e",
          "transactionIndex": "0xea",
          "logIndex": "0x2a0",
          "removed": false
        }
      ],
      "logsBloom": "0x00000000000000400000000000000000000000000000000000000000000000000000000000000000000000000000000000000000000000000004000000002000000000000000000000000008000000000000000000000000000000000000000000000000000000000000000000000000000000000000000000000000000000080000000000000000000000000000000000000000000000000000000000000000000000000000000000000000000000000000000000000000000000000000000000000000000000000000000000000000000000000000000000000000000000000000000000000000000000000000000000000000000000000100000000000000",
      "type": "0x2",
      "transactionHash": "0xafc80da086c5968fbb5927131a65ad4ded99cc67e79ef535457485e1db19e25e",
      "transactionIndex": "0xea",
      "blockHash": "0xb863562393d6081f94e2b379bb20e224eee29516e500a8eb45935a8b225201f1",
      "blockNumber": "0xa7fa89",
      "gasUsed": "0x2fb95",
      "effectiveGasPrice": "0xddb87b34",
      "from": "0x7f6a4429ac431a7f0c5fb7d6fa63f973907d82e9",
      "to": "0x2962dd47f63747fb0139346b179974a485c4ec7d",
      "contractAddress": null
    }
  ],
  "libraries": [],
  "pending": [],
  "returns": {},
  "timestamp": 1780835869101,
  "chain": 11155111,
  "commit": null
}