{
  "transactions": [
    {
      "hash": "0x9ee551edce89ab4b38f59dbf0452c629b269d3e3198a357414aca917719d1064",
      "transactionType": "CALL",
      "contractName": null,
      "contractAddress": "0x9de6716ad65c4ffd43335f8ca8c86f13646d9cbc",
      "function": "applyChainUpdates((uint64,bool,bytes,bytes,(bool,uint128,uint128),(bool,uint128,uint128))[])",
      "arguments": [
        "[(6898391096552792247, true, 0xd633cad939ac9ad7d71eef5cace0885bcf0f2bce, 0x6e2d094fc81dcee227a6029bbe0ce5b344f991ee, (false, 0, 0), (false, 0, 0))]"
      ],
      "transaction": {
        "from": "0x7f6a4429ac431a7f0c5fb7d6fa63f973907d82e9",
        "to": "0x9de6716ad65c4ffd43335f8ca8c86f13646d9cbc",
        "gas": "0x41eb2",
        "value": "0x0",
        "input": "0xdb6327dc0000000000000000000000000000000000000000000000000000000000000020000000000000000000000000000000000000000000000000000000000000000100000000000000000000000000000000000000000000000000000000000000200000000000000000000000000000000000000000000000005fbc02272fbf20b70000000000000000000000000000000000000000000000000000000000000001000000000000000000000000000000000000000000000000000000000000014000000000000000000000000000000000000000000000000000000000000001800000000000000000000000000000000000000000000000000000000000000000000000000000000000000000000000000000000000000000000000000000000000000000000000000000000000000000000000000000000000000000000000000000000000000000000000000000000000000000000000000000000000000000000000000000000000000000000000000000000000000000000000000000000000000000000000000000000000000000000000000000000000000000000000000000000000000000000000000000000000000000000000000000000000000014d633cad939ac9ad7d71eef5cace0885bcf0f2bce00000000000000000000000000000000000000000000000000000000000000000000000000000000000000146e2d094fc81dcee227a6029bbe0ce5b344f991ee000000000000000000000000",
        "nonce": "0x1ce",
        "chainId": "0xaa36a7"
      },
      "additionalContracts": [],
      "isFixedGasLimit": false
    }
  ],
  "receipts": [
    {
      "status": "0x1",
      "cumulativeGasUsed": "0x1435f69",
      "logs": [
        {
          "address": "0x9de6716ad65c4ffd43335f8ca8c86f13646d9cbc",
          "topics": [
            "0x8d340f17e19058004c20453540862a9c62778504476f6756755cb33bcd6c38c2"
          ],
          "data": "0x0000000000000000000000000000000000000000000000005fbc02272fbf20b7000000000000000000000000000000000000000000000000000000000000010000000000000000000000000000000000000000000000000000000000000000000000000000000000000000000000000000000000000000000000000000000000000000000000000000000000000000000000000000000000000000000000000000000000000000000000000000000000000000000000000000000000000000000000000000000000000000000000000000000000000000000000000000000000000000000000000000000000000000000000000000000000000000000000000000000000000000000000000000000000000000000000000000000000000000146e2d094fc81dcee227a6029bbe0ce5b344f991ee000000000000000000000000",
          "blockHash": "0x289dd34781be60c34395953caaa67c6c7a7a8a7c0b9efb8e0f4f3492c250f672",
          "blockNumber": "0xa7fac1",
          "blockTimestamp": "0x6a2568d4",
          "transactionHash": "0x9ee551edce89ab4b38f59dbf0452c629b269d3e3198a357414aca917719d1064",
          "transactionIndex": "0xe0",
          "logIndex": "0x253",
          "removed": false
        }
      ],
      "logsBloom": "0x00000000000000400000000000000000000000000000000000000000000000000000000000000000000000000000000000000000000000000004000000000000000000000000000000000000000000001000000000000000000000000000000000000000000000000000000000000000000000000000000000000000400000000000000000000000000000000000000000000000000000000000000000000000000000000000000000000000000000000000000000000000000000000000000000000000000000000000000000000000000000000000000000000000000002000000000000000000000000000000000000000000000000000100000000000000",
      "type": "0x2",
      "transactionHash": "0x9ee551edce89ab4b38f59dbf0452c629b269d3e3198a357414aca917719d1064",
      "transactionIndex": "0xe0",
      "blockHash": "0x289dd34781be60c34395953caaa67c6c7a7a8a7c0b9efb8e0f4f3492c250f672",
      "blockNumber": "0xa7fac1",
      "gasUsed": "0x2fb95",
      "effectiveGasPrice": "0x8d6fe104",
      "from": "0x7f6a4429ac431a7f0c5fb7d6fa63f973907d82e9",
      "to": "0x9de6716ad65c4ffd43335f8ca8c86f13646d9cbc",
      "contractAddress": null
    }
  ],
  "libraries": [],
  "pending": [],
  "returns": {},
  "timestamp": 1780836564288,
  "chain": 11155111,
  "commit": null
}