{
  "transactions": [
    {
      "hash": "0xec02f4637fb8a69964ca0d15933f3dab389df25a54aa82d6b50d0a3cd4128780",
      "transactionType": "CALL",
      "contractName": null,
      "contractAddress": "0x1c96670bdc459bf345fa41eb8746d0f329839b28",
      "function": "applyChainUpdates((uint64,bool,bytes,bytes,(bool,uint128,uint128),(bool,uint128,uint128))[])",
      "arguments": [
        "[(6898391096552792247, true, 0xd0a09ed2ef4da787de15e53137300268edf210b2, 0x75b3c0d8524b5b45fcffccc7deee80d52f298c02, (false, 0, 0), (false, 0, 0))]"
      ],
      "transaction": {
        "from": "0x7f6a4429ac431a7f0c5fb7d6fa63f973907d82e9",
        "to": "0x1c96670bdc459bf345fa41eb8746d0f329839b28",
        "gas": "0x41eb2",
        "value": "0x0",
        "input": "0xdb6327dc0000000000000000000000000000000000000000000000000000000000000020000000000000000000000000000000000000000000000000000000000000000100000000000000000000000000000000000000000000000000000000000000200000000000000000000000000000000000000000000000005fbc02272fbf20b70000000000000000000000000000000000000000000000000000000000000001000000000000000000000000000000000000000000000000000000000000014000000000000000000000000000000000000000000000000000000000000001800000000000000000000000000000000000000000000000000000000000000000000000000000000000000000000000000000000000000000000000000000000000000000000000000000000000000000000000000000000000000000000000000000000000000000000000000000000000000000000000000000000000000000000000000000000000000000000000000000000000000000000000000000000000000000000000000000000000000000000000000000000000000000000000000000000000000000000000000000000000000000000000000000000000000014d0a09ed2ef4da787de15e53137300268edf210b2000000000000000000000000000000000000000000000000000000000000000000000000000000000000001475b3c0d8524b5b45fcffccc7deee80d52f298c02000000000000000000000000",
        "nonce": "0x1b9",
        "chainId": "0xaa36a7"
      },
      "additionalContracts": [],
      "isFixedGasLimit": false
    }
  ],
  "receipts": [
    {
      "status": "0x1",
      "cumulativeGasUsed": "0xf52277",
      "logs": [
        {
          "address": "0x1c96670bdc459bf345fa41eb8746d0f329839b28",
          "topics": [
            "0x8d340f17e19058004c20453540862a9c62778504476f6756755cb33bcd6c38c2"
          ],
          "data": "0x0000000000000000000000000000000000000000000000005fbc02272fbf20b70000000000000000000000000000000000000000000000000000000000000100000000000000000000000000000000000000000000000000000000000000000000000000000000000000000000000000000000000000000000000000000000000000000000000000000000000000000000000000000000000000000000000000000000000000000000000000000000000000000000000000000000000000000000000000000000000000000000000000000000000000000000000000000000000000000000000000000000000000000000000000000000000000000000000000000000000000000000000000000000000000000000000000000000000000001475b3c0d8524b5b45fcffccc7deee80d52f298c02000000000000000000000000",
          "blockHash": "0x8d789e4d9f3093cd079e965a932f7c57989eb761f2a111ec455eda3af7c7b74e",
          "blockNumber": "0xa7fa13",
          "blockTimestamp": "0x6a255fec",
          "transactionHash": "0xec02f4637fb8a69964ca0d15933f3dab389df25a54aa82d6b50d0a3cd4128780",
          "transactionIndex": "0xb8",
          "logIndex": "0x1a9",
          "removed": false
        }
      ],
      "logsBloom": "0x00000000000000400000000000000000000000000000000000000000000000000000000000000000000000000000000000000000000000000004000000000000000000000000000000000000000000000000000000000000000000000000000000000000000000000000000000004000000000000000000000000000000000000000000000000000000000000004000000000000000000000000000000000000000000000000000000000000000000000000000000000000000000000000000000000000000000000000000000000000000000000000020000000000000000000000000000000000000000000000000000000000000000000100000000000000",
      "type": "0x2",
      "transactionHash": "0xec02f4637fb8a69964ca0d15933f3dab389df25a54aa82d6b50d0a3cd4128780",
      "transactionIndex": "0xb8",
      "blockHash": "0x8d789e4d9f3093cd079e965a932f7c57989eb761f2a111ec455eda3af7c7b74e",
      "blockNumber": "0xa7fa13",
      "gasUsed": "0x2fb95",
      "effectiveGasPrice": "0x9743702f",
      "from": "0x7f6a4429ac431a7f0c5fb7d6fa63f973907d82e9",
      "to": "0x1c96670bdc459bf345fa41eb8746d0f329839b28",
      "contractAddress": null
    }
  ],
  "libraries": [],
  "pending": [],
  "returns": {},
  "timestamp": 1780834284275,
  "chain": 11155111,
  "commit": null
}