{
  "transactions": [
    {
      "hash": "0x187ae2b2fb51110561608d0beb61f4508c95ca4a70bb684fa6757ee8a5750457",
      "transactionType": "CALL",
      "contractName": null,
      "contractAddress": "0x107e55897c47e76a2378cd5dbe2c60e8c2677d49",
      "function": "applyChainUpdates((uint64,bool,bytes,bytes,(bool,uint128,uint128),(bool,uint128,uint128))[])",
      "arguments": [
        "[(6898391096552792247, true, 0x48e6dbbcf49a611a814247ac8b710c845a17c126, 0xd27c26f280ec9fd749593a8eb4b968a0c2aaa6bb, (false, 0, 0), (false, 0, 0))]"
      ],
      "transaction": {
        "from": "0x7f6a4429ac431a7f0c5fb7d6fa63f973907d82e9",
        "to": "0x107e55897c47e76a2378cd5dbe2c60e8c2677d49",
        "gas": "0x41eb2",
        "value": "0x0",
        "input": "0xdb6327dc0000000000000000000000000000000000000000000000000000000000000020000000000000000000000000000000000000000000000000000000000000000100000000000000000000000000000000000000000000000000000000000000200000000000000000000000000000000000000000000000005fbc02272fbf20b7000000000000000000000000000000000000000000000000000000000000000100000000000000000000000000000000000000000000000000000000000001400000000000000000000000000000000000000000000000000000000000000180000000000000000000000000000000000000000000000000000000000000000000000000000000000000000000000000000000000000000000000000000000000000000000000000000000000000000000000000000000000000000000000000000000000000000000000000000000000000000000000000000000000000000000000000000000000000000000000000000000000000000000000000000000000000000000000000000000000000000000000000000000000000000000000000000000000000000000000000000000000000000000000000000000000000001448e6dbbcf49a611a814247ac8b710c845a17c1260000000000000000000000000000000000000000000000000000000000000000000000000000000000000014d27c26f280ec9fd749593a8eb4b968a0c2aaa6bb000000000000000000000000",
        "nonce": "0x1f7",
        "chainId": "0xaa36a7"
      },
      "additionalContracts": [],
      "isFixedGasLimit": false
    }
  ],
  "receipts": [
    {
      "status": "0x1",
      "cumulativeGasUsed": "0x134f320",
      "logs": [
        {
          "address": "0x107e55897c47e76a2378cd5dbe2c60e8c2677d49",
          "topics": [
            "0x8d340f17e19058004c20453540862a9c62778504476f6756755cb33bcd6c38c2"
          ],
          "data": "0x0000000000000000000000000000000000000000000000005fbc02272fbf20b700000000000000000000000000000000000000000000000000000000000001000000000000000000000000000000000000000000000000000000000000000000000000000000000000000000000000000000000000000000000000000000000000000000000000000000000000000000000000000000000000000000000000000000000000000000000000000000000000000000000000000000000000000000000000000000000000000000000000000000000000000000000000000000000000000000000000000000000000000000000000000000000000000000000000000000000000000000000000000000000000000000000000000000000000000014d27c26f280ec9fd749593a8eb4b968a0c2aaa6bb000000000000000000000000",
          "blockHash": "0x8ba3d31e7717cffc56fe576f0d35fb126132d6afdbb669dccc368cf2cb1f57dd",
          "blockNumber": "0xa80e78",
          "blockTimestamp": "0x6a2665a0",
          "transactionHash": "0x187ae2b2fb51110561608d0beb61f4508c95ca4a70bb684fa6757ee8a5750457",
          "transactionIndex": "0xac",
          "logIndex": "0x1bc",
          "removed": false
        }
      ],
      "logsBloom": "0x00000000000000400000000000000800000000000000020000000000000000000000000000000000000000000000000000000000000000000004000000000000000000000000000000000000000000000000000000000000000000000000000000000000000000000000000000000000000000000000000000000000000000000000000000000000000000000000000000000000000000000000000000000000000000000000000000000000000000000000000000000000000000000000000000000000000000000000000000000000000000000040000000000000000000000000000000000000000000000000000000000000000000000100000000000000",
      "type": "0x2",
      "transactionHash": "0x187ae2b2fb51110561608d0beb61f4508c95ca4a70bb684fa6757ee8a5750457",
      "transactionIndex": "0xac",
      "blockHash": "0x8ba3d31e7717cffc56fe576f0d35fb126132d6afdbb669dccc368cf2cb1f57dd",
      "blockNumber": "0xa80e78",
      "gasUsed": "0x2fb95",
      "effectiveGasPrice": "0x5389d71e8",
      "from": "0x7f6a4429ac431a7f0c5fb7d6fa63f973907d82e9",
      "to": "0x107e55897c47e76a2378cd5dbe2c60e8c2677d49",
      "contractAddress": null
    }
  ],
  "libraries": [],
  "pending": [],
  "returns": {},
  "timestamp": 1780901282614,
  "chain": 11155111,
  "commit": null
}