{
  "transactions": [
    {
      "hash": "0x9a90abc81768e305ced2b5cada2f9c85247f7070cc5ae8d8cda2780c7d9a1dbc",
      "transactionType": "CALL",
      "contractName": null,
      "contractAddress": "0x8671db487921d941d69f6a759976db3c605016eb",
      "function": "applyChainUpdates((uint64,bool,bytes,bytes,(bool,uint128,uint128),(bool,uint128,uint128))[])",
      "arguments": [
        "[(6898391096552792247, true, 0x08e24113181e1e4b281ad9e623d439e0e78a578d, 0xf69619ef0b8345e4b3ff42821348c603916f48c0, (false, 0, 0), (false, 0, 0))]"
      ],
      "transaction": {
        "from": "0x7f6a4429ac431a7f0c5fb7d6fa63f973907d82e9",
        "to": "0x8671db487921d941d69f6a759976db3c605016eb",
        "gas": "0x41eb2",
        "value": "0x0",
        "input": "0xdb6327dc0000000000000000000000000000000000000000000000000000000000000020000000000000000000000000000000000000000000000000000000000000000100000000000000000000000000000000000000000000000000000000000000200000000000000000000000000000000000000000000000005fbc02272fbf20b7000000000000000000000000000000000000000000000000000000000000000100000000000000000000000000000000000000000000000000000000000001400000000000000000000000000000000000000000000000000000000000000180000000000000000000000000000000000000000000000000000000000000000000000000000000000000000000000000000000000000000000000000000000000000000000000000000000000000000000000000000000000000000000000000000000000000000000000000000000000000000000000000000000000000000000000000000000000000000000000000000000000000000000000000000000000000000000000000000000000000000000000000000000000000000000000000000000000000000000000000000000000000000000000000000000000000001408e24113181e1e4b281ad9e623d439e0e78a578d0000000000000000000000000000000000000000000000000000000000000000000000000000000000000014f69619ef0b8345e4b3ff42821348c603916f48c0000000000000000000000000",
        "nonce": "0x1dc",
        "chainId": "0xaa36a7"
      },
      "additionalContracts": [],
      "isFixedGasLimit": false
    }
  ],
  "receipts": [
    {
      "status": "0x1",
      "cumulativeGasUsed": "0xbfe886",
      "logs": [
        {
          "address": "0x8671db487921d941d69f6a759976db3c605016eb",
          "topics": [
            "0x8d340f17e19058004c20453540862a9c62778504476f6756755cb33bcd6c38c2"
          ],
          "data": "0x0000000000000000000000000000000000000000000000005fbc02272fbf20b700000000000000000000000000000000000000000000000000000000000001000000000000000000000000000000000000000000000000000000000000000000000000000000000000000000000000000000000000000000000000000000000000000000000000000000000000000000000000000000000000000000000000000000000000000000000000000000000000000000000000000000000000000000000000000000000000000000000000000000000000000000000000000000000000000000000000000000000000000000000000000000000000000000000000000000000000000000000000000000000000000000000000000000000000000014f69619ef0b8345e4b3ff42821348c603916f48c0000000000000000000000000",
          "blockHash": "0xfc8c2a0b0b5d9330feaab54b225e8c808be9c967645c899e6e2711ab59c7363e",
          "blockNumber": "0xa80cb8",
          "blockTimestamp": "0x6a264e90",
          "transactionHash": "0x9a90abc81768e305ced2b5cada2f9c85247f7070cc5ae8d8cda2780c7d9a1dbc",
          "transactionIndex": "0x8d",
          "logIndex": "0x15a",
          "removed": false
        }
      ],
      "logsBloom": "0x00000000000000400000000000000000000000000000000000000000000000000000000000000000000000000000000000000000000000000004000000000000000000000200008000000000000000000000000000000000000000000000000000000000000000000000000000000000000000000000000000000000000000000000000000000000000000000000000000000000000000000000000000000000000000000000000000000000000000000000000000000000000000000000000000000000000000000000000000000000000000000000000000000000000000000000000000001000000000000000000000000000000000000100000000000000",
      "type": "0x2",
      "transactionHash": "0x9a90abc81768e305ced2b5cada2f9c85247f7070cc5ae8d8cda2780c7d9a1dbc",
      "transactionIndex": "0x8d",
      "blockHash": "0xfc8c2a0b0b5d9330feaab54b225e8c808be9c967645c899e6e2711ab59c7363e",
      "blockNumber": "0xa80cb8",
      "gasUsed": "0x2fb95",
      "effectiveGasPrice": "0x2781d0c87",
      "from": "0x7f6a4429ac431a7f0c5fb7d6fa63f973907d82e9",
      "to": "0x8671db487921d941d69f6a759976db3c605016eb",
      "contractAddress": null
    }
  ],
  "libraries": [],
  "pending": [],
  "returns": {},
  "timestamp": 1780895377619,
  "chain": 11155111,
  "commit": null
}