{
  "transactions": [
    {
      "hash": "0x28ac660734f098e76717aafa45addc544dc2ddb6db33cf6a85488ab25050a8c7",
      "transactionType": "CALL",
      "contractName": null,
      "contractAddress": "0x41069982d66a03328429b1bcba1e1e46f5e28c36",
      "function": "applyChainUpdates((uint64,bool,bytes,bytes,(bool,uint128,uint128),(bool,uint128,uint128))[])",
      "arguments": [
        "[(6898391096552792247, true, 0x714676d9c212fac8082acf2bb974e5c4e223f157, 0x587175f1dc9b090755c063867a476982819fecfe, (false, 0, 0), (false, 0, 0))]"
      ],
      "transaction": {
        "from": "0x7f6a4429ac431a7f0c5fb7d6fa63f973907d82e9",
        "to": "0x41069982d66a03328429b1bcba1e1e46f5e28c36",
        "gas": "0x41eb2",
        "value": "0x0",
        "input": "0xdb6327dc0000000000000000000000000000000000000000000000000000000000000020000000000000000000000000000000000000000000000000000000000000000100000000000000000000000000000000000000000000000000000000000000200000000000000000000000000000000000000000000000005fbc02272fbf20b70000000000000000000000000000000000000000000000000000000000000001000000000000000000000000000000000000000000000000000000000000014000000000000000000000000000000000000000000000000000000000000001800000000000000000000000000000000000000000000000000000000000000000000000000000000000000000000000000000000000000000000000000000000000000000000000000000000000000000000000000000000000000000000000000000000000000000000000000000000000000000000000000000000000000000000000000000000000000000000000000000000000000000000000000000000000000000000000000000000000000000000000000000000000000000000000000000000000000000000000000000000000000000000000000000000000000014714676d9c212fac8082acf2bb974e5c4e223f1570000000000000000000000000000000000000000000000000000000000000000000000000000000000000014587175f1dc9b090755c063867a476982819fecfe000000000000000000000000",
        "nonce": "0x1d5",
        "chainId": "0xaa36a7"
      },
      "additionalContracts": [],
      "isFixedGasLimit": false
    }
  ],
  "receipts": [
    {
      "status": "0x1",
      "cumulativeGasUsed": "0x176852d",
      "logs": [
        {
          "address": "0x41069982d66a03328429b1bcba1e1e46f5e28c36",
          "topics": [
            "0x8d340f17e19058004c20453540862a9c62778504476f6756755cb33bcd6c38c2"
          ],
          "data": "0x0000000000000000000000000000000000000000000000005fbc02272fbf20b700000000000000000000000000000000000000000000000000000000000001000000000000000000000000000000000000000000000000000000000000000000000000000000000000000000000000000000000000000000000000000000000000000000000000000000000000000000000000000000000000000000000000000000000000000000000000000000000000000000000000000000000000000000000000000000000000000000000000000000000000000000000000000000000000000000000000000000000000000000000000000000000000000000000000000000000000000000000000000000000000000000000000000000000000000014587175f1dc9b090755c063867a476982819fecfe000000000000000000000000",
          "blockHash": "0x4436e9f2b958df1b503c7287403284c020f23968f3cc38aacf5f314e8275b47e",
          "blockNumber": "0xa80c92",
          "blockTimestamp": "0x6a264ca4",
          "transactionHash": "0x28ac660734f098e76717aafa45addc544dc2ddb6db33cf6a85488ab25050a8c7",
          "transactionIndex": "0xf2",
          "logIndex": "0x28e",
          "removed": false
        }
      ],
      "logsBloom": "0x00000000000000400000000000000000000000000000000000000000000000000000000000000000000000000000000000000000000000000004000000008000000000000000000000000000000000000000000000000000000000000000000000000000000000000000000000000000000000000000000000000000000000000000000000000000000000000000000000000000000000000000000000000000000000000000000000000000000000000000000000000000000000000000000000000000000000000000000000000000000000000000000000000000000004000000000000000000000000000000000000000000000000000100000000000000",
      "type": "0x2",
      "transactionHash": "0x28ac660734f098e76717aafa45addc544dc2ddb6db33cf6a85488ab25050a8c7",
      "transactionIndex": "0xf2",
      "blockHash": "0x4436e9f2b958df1b503c7287403284c020f23968f3cc38aacf5f314e8275b47e",
      "blockNumber": "0xa80c92",
      "gasUsed": "0x2fb95",
      "effectiveGasPrice": "0x2035096ab",
      "from": "0x7f6a4429ac431a7f0c5fb7d6fa63f973907d82e9",
      "to": "0x41069982d66a03328429b1bcba1e1e46f5e28c36",
      "contractAddress": null
    }
  ],
  "libraries": [],
  "pending": [],
  "returns": {},
  "timestamp": 1780894886725,
  "chain": 11155111,
  "commit": null
}