{
  "transactions": [
    {
      "hash": "0xf0d8c48a8ae5a82a62ea076e8e070b92a167a58bc80f579f84197c45794f891a",
      "transactionType": "CALL",
      "contractName": null,
      "contractAddress": "0x71b39abe53a4aa94f67d3f083bd933c1f3c40181",
      "function": "applyChainUpdates((uint64,bool,bytes,bytes,(bool,uint128,uint128),(bool,uint128,uint128))[])",
      "arguments": [
        "[(6898391096552792247, true, 0xe82137483023855abad54219773007c96962fd3b, 0x9d40b710388e23a7edd3ccd9acfc51529c71f193, (false, 0, 0), (false, 0, 0))]"
      ],
      "transaction": {
        "from": "0x7f6a4429ac431a7f0c5fb7d6fa63f973907d82e9",
        "to": "0x71b39abe53a4aa94f67d3f083bd933c1f3c40181",
        "gas": "0x41eb2",
        "value": "0x0",
        "input": "0xdb6327dc0000000000000000000000000000000000000000000000000000000000000020000000000000000000000000000000000000000000000000000000000000000100000000000000000000000000000000000000000000000000000000000000200000000000000000000000000000000000000000000000005fbc02272fbf20b70000000000000000000000000000000000000000000000000000000000000001000000000000000000000000000000000000000000000000000000000000014000000000000000000000000000000000000000000000000000000000000001800000000000000000000000000000000000000000000000000000000000000000000000000000000000000000000000000000000000000000000000000000000000000000000000000000000000000000000000000000000000000000000000000000000000000000000000000000000000000000000000000000000000000000000000000000000000000000000000000000000000000000000000000000000000000000000000000000000000000000000000000000000000000000000000000000000000000000000000000000000000000000000000000000000000000014e82137483023855abad54219773007c96962fd3b00000000000000000000000000000000000000000000000000000000000000000000000000000000000000149d40b710388e23a7edd3ccd9acfc51529c71f193000000000000000000000000",
        "nonce": "0x1c0",
        "chainId": "0xaa36a7"
      },
      "additionalContracts": [],
      "isFixedGasLimit": false
    }
  ],
  "receipts": [
    {
      "status": "0x1",
      "cumulativeGasUsed": "0x18b892c",
      "logs": [
        {
          "address": "0x71b39abe53a4aa94f67d3f083bd933c1f3c40181",
          "topics": [
            "0x8d340f17e19058004c20453540862a9c62778504476f6756755cb33bcd6c38c2"
          ],
          "data": "0x0000000000000000000000000000000000000000000000005fbc02272fbf20b7000000000000000000000000000000000000000000000000000000000000010000000000000000000000000000000000000000000000000000000000000000000000000000000000000000000000000000000000000000000000000000000000000000000000000000000000000000000000000000000000000000000000000000000000000000000000000000000000000000000000000000000000000000000000000000000000000000000000000000000000000000000000000000000000000000000000000000000000000000000000000000000000000000000000000000000000000000000000000000000000000000000000000000000000000000149d40b710388e23a7edd3ccd9acfc51529c71f193000000000000000000000000",
          "blockHash": "0xf9ce6aa6349ab76514940b036ae0e866cd0c691f7ea19b0b59871efdd59f2a13",
          "blockNumber": "0xa7fa59",
          "blockTimestamp": "0x6a2563ac",
          "transactionHash": "0xf0d8c48a8ae5a82a62ea076e8e070b92a167a58bc80f579f84197c45794f891a",
          "transactionIndex": "0xf5",
          "logIndex": "0x2ef",
          "removed": false
        }
      ],
      "logsBloom": "0x00000000000000400000000000000000000000000000000000000000000000000000000000000000000000000000000000000000000000000004000002000000000000000000000000000000000000000000000000000000000000000010000000000000000000000000000000000000000000000000000000000000000000000000000000000000000000000000000000000000000000000000000000000000000000000000000000000000000000000000000000000000000000000000000100000000000000000000000000000000000000000000000000000000000000000000000000000000000000000000000000000000000000000100000000000000",
      "type": "0x2",
      "transactionHash": "0xf0d8c48a8ae5a82a62ea076e8e070b92a167a58bc80f579f84197c45794f891a",
      "transactionIndex": "0xf5",
      "blockHash": "0xf9ce6aa6349ab76514940b036ae0e866cd0c691f7ea19b0b59871efdd59f2a13",
      "blockNumber": "0xa7fa59",
      "gasUsed": "0x2fb95",
      "effectiveGasPrice": "0x138f0912e",
      "from": "0x7f6a4429ac431a7f0c5fb7d6fa63f973907d82e9",
      "to": "0x71b39abe53a4aa94f67d3f083bd933c1f3c40181",
      "contractAddress": null
    }
  ],
  "libraries": [],
  "pending": [],
  "returns": {},
  "timestamp": 1780835243136,
  "chain": 11155111,
  "commit": null
}