{
  "transactions": [
    {
      "hash": "0x923f11193b415f654b6905ff862e4481f5cdffc49749f44b2fe0f5bee54f73dc",
      "transactionType": "CALL",
      "contractName": null,
      "contractAddress": "0x08e24113181e1e4b281ad9e623d439e0e78a578d",
      "function": "applyChainUpdates((uint64,bool,bytes,bytes,(bool,uint128,uint128),(bool,uint128,uint128))[])",
      "arguments": [
        "[(16015286601757825753, true, 0x0000000000000000000000008671db487921d941d69f6a759976db3c605016eb, 0x000000000000000000000000b5bf3c320c0d1f919b5ff1c2eb25f93eff36c34c, (false, 0, 0), (false, 0, 0))]"
      ],
      "transaction": {
        "from": "0x7f6a4429ac431a7f0c5fb7d6fa63f973907d82e9",
        "to": "0x08e24113181e1e4b281ad9e623d439e0e78a578d",
        "gas": "0xcd212",
        "value": "0x0",
        "input": "0xdb6327dc000000000000000000000000000000000000000000000000000000000000002000000000000000000000000000000000000000000000000000000000000000010000000000000000000000000000000000000000000000000000000000000020000000000000000000000000000000000000000000000000de41ba4fc9d91ad900000000000000000000000000000000000000000000000000000000000000010000000000000000000000000000000000000000000000000000000000000140000000000000000000000000000000000000000000000000000000000000018000000000000000000000000000000000000000000000000000000000000000000000000000000000000000000000000000000000000000000000000000000000000000000000000000000000000000000000000000000000000000000000000000000000000000000000000000000000000000000000000000000000000000000000000000000000000000000000000000000000000000000000000000000000000000000000000000000000000000000000000000000000000000000000000000000000000000000000000000000000000000000000000000000000000000200000000000000000000000008671db487921d941d69f6a759976db3c605016eb0000000000000000000000000000000000000000000000000000000000000020000000000000000000000000b5bf3c320c0d1f919b5ff1c2eb25f93eff36c34c",
        "nonce": "0x37",
        "chainId": "0x12c"
      },
      "additionalContracts": [],
      "isFixedGasLimit": false
    }
  ],
  "receipts": [
    {
      "status": "0x1",
      "cumulativeGasUsed": "0x0",
      "logs": [
        {
          "address": "0x000000000000000000000000000000000000800a",
          "topics": [
            "0xddf252ad1be2c89b69c2b068fc378daa952ba7f163c4a11628f55a4df523b3ef",
            "0x0000000000000000000000007f6a4429ac431a7f0c5fb7d6fa63f973907d82e9",
            "0x0000000000000000000000000000000000000000000000000000000000008001"
          ],
          "data": "0x0000000000000000000000000000000000000000000000000000263554fabb12",
          "blockHash": "0xd86ad0a145cca17d29f5b1c590acd0b36d3bf8d2d2960af15c875d37175ec883",
          "blockNumber": "0x73fe10",
          "blockTimestamp": "0x6a265623",
          "transactionHash": "0x923f11193b415f654b6905ff862e4481f5cdffc49749f44b2fe0f5bee54f73dc",
          "transactionIndex": "0x0",
          "logIndex": "0x0",
          "removed": false
        },
        {
          "address": "0x000000000000000000000000000000000000800a",
          "topics": [
            "0xddf252ad1be2c89b69c2b068fc378daa952ba7f163c4a11628f55a4df523b3ef",
            "0x0000000000000000000000000000000000000000000000000000000000008001",
            "0x0000000000000000000000007f6a4429ac431a7f0c5fb7d6fa63f973907d82e9"
          ],
          "data": "0x0000000000000000000000000000000000000000000000000000131aaa83c692",
          "blockHash": "0xd86ad0a145cca17d29f5b1c590acd0b36d3bf8d2d2960af15c875d37175ec883",
          "blockNumber": "0x73fe10",
          "blockTimestamp": "0x6a265623",
          "transactionHash": "0x923f11193b415f654b6905ff862e4481f5cdffc49749f44b2fe0f5bee54f73dc",
          "transactionIndex": "0x0",
          "logIndex": "0x1",
          "removed": false
        },
        {
          "address": "0x08e24113181e1e4b281ad9e623d439e0e78a578d",
          "topics": [
            "0x8d340f17e19058004c20453540862a9c62778504476f6756755cb33bcd6c38c2"
          ],
          "data": "0x000000000000000000000000000000000000000000000000de41ba4fc9d91ad900000000000000000000000000000000000000000000000000000000000001000000000000000000000000000000000000000000000000000000000000000000000000000000000000000000000000000000000000000000000000000000000000000000000000000000000000000000000000000000000000000000000000000000000000000000000000000000000000000000000000000000000000000000000000000000000000000000000000000000000000000000000000000000000000000000000000000000000000000000000000000000000000000000000000000000000000000000000000000000000000000000000000000000000000000020000000000000000000000000b5bf3c320c0d1f919b5ff1c2eb25f93eff36c34c",
          "blockHash": "0xd86ad0a145cca17d29f5b1c590acd0b36d3bf8d2d2960af15c875d37175ec883",
          "blockNumber": "0x73fe10",
          "blockTimestamp": "0x6a265623",
          "transactionHash": "0x923f11193b415f654b6905ff862e4481f5cdffc49749f44b2fe0f5bee54f73dc",
          "transactionIndex": "0x0",
          "logIndex": "0x2",
          "removed": false
        },
        {
          "address": "0x000000000000000000000000000000000000800a",
          "topics": [
            "0xddf252ad1be2c89b69c2b068fc378daa952ba7f163c4a11628f55a4df523b3ef",
            "0x0000000000000000000000000000000000000000000000000000000000008001",
            "0x0000000000000000000000007f6a4429ac431a7f0c5fb7d6fa63f973907d82e9"
          ],
          "data": "0x00000000000000000000000000000000000000000000000000000c97ac945fc0",
          "blockHash": "0xd86ad0a145cca17d29f5b1c590acd0b36d3bf8d2d2960af15c875d37175ec883",
          "blockNumber": "0x73fe10",
          "blockTimestamp": "0x6a265623",
          "transactionHash": "0x923f11193b415f654b6905ff862e4481f5cdffc49749f44b2fe0f5bee54f73dc",
          "transactionIndex": "0x0",
          "logIndex": "0x3",
          "removed": false
        }
      ],
      "logsBloom": "0x00000000000400400000000000000000000000000000000000002000000000000000000000000000000000000000000000000000000000000004080000000000000000000000040000000008000000000000000000080000000000000000080000000000000000000000000000000000000000000000000000000010000000000000000000000000000014000000000000000000000000000000080000000000000000000000100000000000000000000000000000000000000000000000000000000002008000000000000000000000000000000000000000000000000000010000000000000000000000000000000000000000000000000100000000000000",
      "type": "0x2",
      "transactionHash": "0x923f11193b415f654b6905ff862e4481f5cdffc49749f44b2fe0f5bee54f73dc",
      "transactionIndex": "0x0",
      "blockHash": "0xd86ad0a145cca17d29f5b1c590acd0b36d3bf8d2d2960af15c875d37175ec883",
      "blockNumber": "0x73fe10",
      "gasUsed": "0x45eb3",
      "effectiveGasPrice": "0x17d7840",
      "from": "0x7f6a4429ac431a7f0c5fb7d6fa63f973907d82e9",
      "to": "0x08e24113181e1e4b281ad9e623d439e0e78a578d",
      "contractAddress": null,
      "l1BatchNumber": null,
      "l1BatchTxIndex": null,
      "l2ToL1Logs": []
    }
  ],
  "libraries": [],
  "pending": [],
  "returns": {},
  "timestamp": 1780897317790,
  "chain": 300,
  "commit": null
}