{
  "transactions": [
    {
      "hash": "0x152f13e81ae84a9cb60d1757de3e71849e945009add24f8d8acd62e2921b3c3b",
      "transactionType": "CREATE",
      "contractName": "Vault",
      "contractAddress": "0x455e2e49abcbea430ea2f7634d1dad6b8c587bb6",
      "function": null,
      "arguments": [
        "0x79A1823237e07Bcb8e4eD44F8C31D6e233865f46"
      ],
      "transaction": {
        "from": "0x7f6a4429ac431a7f0c5fb7d6fa63f973907d82e9",
        "gas": "0x59d3b",
        "value": "0x0",
        "input": "0x60a034607357601f6104ac38819003918201601f19168301916001600160401b03831184841017607757808492602094604052833981010312607357516001600160a01b0381168103607357608052604051610420908161008c82396080518181816061015281816101a601526103850152f35b5f80fd5b634e487b7160e01b5f52604160045260245ffdfe608080604052600436101561001c575b50361561001a575f80fd5b005b5f905f3560e01c90816334a4edea146103735750806393dbe18b1461017b5763d0e30db00361000f57806003193601126101255760405163292bdab360e11b815281907f00000000000000000000000000000000000000000000000000000000000000006001600160a01b03169060208160048186865af1908115610170578391610137575b50813b15610133578291606483926040519485938492630ab714fb60e11b845233600485015234602485015260448401525af1801561012857610110575b506040513481527fe1fffcc4923d04b559f4d29a8bfc6cda04eb5b0d3c460751c2402c5c5cc9109c60203392a280f35b8161011a916103b4565b61012557805f6100e0565b80fd5b6040513d84823e3d90fd5b5050fd5b9250506020823d602011610168575b81610153602093836103b4565b81010312610164578291515f6100a2565b5f80fd5b3d9150610146565b6040513d85823e3d90fd5b5034610164576020366003190112610164576040516370a0823160e01b8152336004828101919091527f00000000000000000000000000000000000000000000000000000000000000006001600160a01b03169190356020826024815f875af19182156102f1575f9261033f575b505f1981036102fc5750905b803b15610164575f8091604460405180948193632770a7eb60e21b83523360048401528760248401525af180156102f1576102dc575b508147808311156102d257818080925b335af13d156102cd573d67ffffffffffffffff81116102b9576040519061026c601f8201601f1916602001836103b4565b81528360203d92013e5b156102aa576040519081527f8c9c06c38312fc3a665880cd1c37e86f1e6396730f3310f9cfd7ac3f7213fc2d60203392a280f35b63badcbe0360e01b8252600482fd5b634e487b7160e01b84526041600452602484fd5b610276565b508080808461023b565b6102e99192505f906103b4565b5f905f61022b565b6040513d5f823e3d90fd5b91908211156101f55760405162461bcd60e51b81526020600482015260126024820152714e6f7420656e6f7567682062616c616e636560701b6044820152606490fd5b9091506020813d60201161036b575b8161035b602093836103b4565b810103126101645751905f6101e9565b3d915061034e565b34610164575f366003190112610164577f00000000000000000000000000000000000000000000000000000000000000006001600160a01b03168152602090f35b90601f8019910116810190811067ffffffffffffffff8211176103d657604052565b634e487b7160e01b5f52604160045260245ffdfea2646970667358221220b13696ebb9372f68622383935759e5897ebb6ff3b0f1a82995afb1117c909ca564736f6c634300081c003300000000000000000000000079a1823237e07bcb8e4ed44f8c31d6e233865f46",
        "nonce": "0x1d3",
        "chainId": "0xaa36a7"
      },
      "additionalContracts": [],
      "isFixedGasLimit": false
    },
    {
      "hash": "0x47601bd48d34099030cb2c0484ed066d6128ccb041e8fe2d67f9b985ade29e48",
      "transactionType": "CALL",
      "contractName": null,
      "contractAddress": "0x79a1823237e07bcb8e4ed44f8c31d6e233865f46",
      "function": "grantMintAndBurnRole(address)",
      "arguments": [
        "0x455E2e49aBCbeA430Ea2F7634d1DAd6B8c587BB6"
      ],
      "transaction": {
        "from": "0x7f6a4429ac431a7f0c5fb7d6fa63f973907d82e9",
        "to": "0x79a1823237e07bcb8e4ed44f8c31d6e233865f46",
        "gas": "0x105a3",
        "value": "0x0",
        "input": "0x7cfb3d71000000000000000000000000455e2e49abcbea430ea2f7634d1dad6b8c587bb6",
        "nonce": "0x1d4",
        "chainId": "0xaa36a7"
      },
      "additionalContracts": [],
      "isFixedGasLimit": false
    }
  ],
  "receipts": [
    {
      "status": "0x1",
      "cumulativeGasUsed": "0x13909ca",
      "logs": [],
      "logsBloom": "0x00000000000000000000000000000000000000000000000000000000000000000000000000000000000000000000000000000000000000000000000000000000000000000000000000000000000000000000000000000000000000000000000000000000000000000000000000000000000000000000000000000000000000000000000000000000000000000000000000000000000000000000000000000000000000000000000000000000000000000000000000000000000000000000000000000000000000000000000000000000000000000000000000000000000000000000000000000000000000000000000000000000000000000000000000000000",
      "type": "0x2",
      "transactionHash": "0x152f13e81ae84a9cb60d1757de3e71849e945009add24f8d8acd62e2921b3c3b",
      "transactionIndex": "0xce",
      "blockHash": "0x3105282f35f2df2018212e43226420c11fbed5bba9281a7c6f731c4d27c53bd6",
      "blockNumber": "0xa80c8e",
      "gasUsed": "0x45190",
      "effectiveGasPrice": "0x1fbe71f28",
      "from": "0x7f6a4429ac431a7f0c5fb7d6fa63f973907d82e9",
      "to": null,
      "contractAddress": "0x455e2e49abcbea430ea2f7634d1dad6b8c587bb6"
    },
    {
      "status": "0x1",
      "cumulativeGasUsed": "0x139c737",
      "logs": [
        {
          "address": "0x79a1823237e07bcb8e4ed44f8c31d6e233865f46",
          "topics": [
            "0x2f8788117e7eff1d82e926ec794901d17c78024a50270940304540a733656f0d",
            "0x7429555b03aa5cf08cc5fc0890c97db295c9cec5e6bb1544bcd7fd1430dae3e2",
            "0x000000000000000000000000455e2e49abcbea430ea2f7634d1dad6b8c587bb6",
            "0x0000000000000000000000007f6a4429ac431a7f0c5fb7d6fa63f973907d82e9"
          ],
          "data": "0x",
          "blockHash": "0x3105282f35f2df2018212e43226420c11fbed5bba9281a7c6f731c4d27c53bd6",
          "blockNumber": "0xa80c8e",
          "blockTimestamp": "0x6a264c74",
          "transactionHash": "0x47601bd48d34099030cb2c0484ed066d6128ccb041e8fe2d67f9b985ade29e48",
          "transactionIndex": "0xcf",
          "logIndex": "0x273",
          "removed": false
        }
      ],
      "logsBloom": "0x00000004000000000000000000000000000000000000000000002000000000000000000002000000000000000000000000000000000000000000080000010000000000000001000000000000000000000000000000000000000000000000000000000000000000000000000000000000000000000000000000000000000000000000000000000000000000000000000000000000000000200000000000000000000000000000000000000000000000000008000000000004001000000000000000000000000000001000000000020000000000000000000100000000000000010000000000000000000000000000000000000000000000010000000000000000",
      "type": "0x2",
      "transactionHash": "0x47601bd48d34099030cb2c0484ed066d6128ccb041e8fe2d67f9b985ade29e48",
      "transactionIndex": "0xcf",
      "blockHash": "0x3105282f35f2df2018212e43226420c11fbed5bba9281a7c6f731c4d27c53bd6",
      "blockNumber": "0xa80c8e",
      "gasUsed": "0xbd6d",
      "effectiveGasPrice": "0x1fbe71f28",
      "from": "0x7f6a4429ac431a7f0c5fb7d6fa63f973907d82e9",
      "to": "0x79a1823237e07bcb8e4ed44f8c31d6e233865f46",
      "contractAddress": null
    }
  ],
  "libraries": [],
  "pending": [],
  "returns": {
    "vault": {
      "internal_type": "contract Vault",
      "value": "0x455E2e49aBCbeA430Ea2F7634d1DAd6B8c587BB6"
    }
  },
  "timestamp": 1780894837008,
  "chain": 11155111,
  "commit": null
}